{
    "contractName": "Certificates",
    "abi": [
        {
            "inputs": [
                {
                    "internalType": "address",
                    "name": "_defaultAdmin",
                    "type": "address"
                },
                {
                    "internalType": "string",
                    "name": "_name",
                    "type": "string"
                },
                {
                    "internalType": "string",
                    "name": "_symbol",
                    "type": "string"
                },
                {
                    "internalType": "address",
                    "name": "_royaltyRecipient",
                    "type": "address"
                },
                {
                    "internalType": "uint128",
                    "name": "_royaltyBps",
                    "type": "uint128"
                }
            ],
            "stateMutability": "nonpayable",
            "type": "constructor"
        },
        {
            "inputs": [],
            "name": "ApprovalCallerNotOwnerNorApproved",
            "type": "error"
        },
        {
            "inputs": [],
            "name": "ApprovalQueryForNonexistentToken",
            "type": "error"
        },
        {
            "inputs": [],
            "name": "ApprovalToCurrentOwner",
            "type": "error"
        },
        {
            "inputs": [],
            "name": "ApproveToCaller",
            "type": "error"
        },
        {
            "inputs": [],
            "name": "BalanceQueryForZeroAddress",
            "type": "error"
        },
        {
            "inputs": [],
            "name": "MintToZeroAddress",
            "type": "error"
        },
        {
            "inputs": [],
            "name": "MintZeroQuantity",
            "type": "error"
        },
        {
            "inputs": [],
            "name": "OwnerQueryForNonexistentToken",
            "type": "error"
        },
        {
            "inputs": [],
            "name": "TransferCallerNotOwnerNorApproved",
            "type": "error"
        },
        {
            "inputs": [],
            "name": "TransferFromIncorrectOwner",
            "type": "error"
        },
        {
            "inputs": [],
            "name": "TransferToNonERC721ReceiverImplementer",
            "type": "error"
        },
        {
            "inputs": [],
            "name": "TransferToZeroAddress",
            "type": "error"
        },
        {
            "inputs": [],
            "name": "URIQueryForNonexistentToken",
            "type": "error"
        },
        {
            "anonymous": false,
            "inputs": [
                {
                    "indexed": true,
                    "internalType": "address",
                    "name": "owner",
                    "type": "address"
                },
                {
                    "indexed": true,
                    "internalType": "address",
                    "name": "approved",
                    "type": "address"
                },
                {
                    "indexed": true,
                    "internalType": "uint256",
                    "name": "tokenId",
                    "type": "uint256"
                }
            ],
            "name": "Approval",
            "type": "event"
        },
        {
            "anonymous": false,
            "inputs": [
                {
                    "indexed": true,
                    "internalType": "address",
                    "name": "owner",
                    "type": "address"
                },
                {
                    "indexed": true,
                    "internalType": "address",
                    "name": "operator",
                    "type": "address"
                },
                {
                    "indexed": false,
                    "internalType": "bool",
                    "name": "approved",
                    "type": "bool"
                }
            ],
            "name": "ApprovalForAll",
            "type": "event"
        },
        {
            "anonymous": false,
            "inputs": [
                {
                    "indexed": false,
                    "internalType": "uint256",
                    "name": "_fromTokenId",
                    "type": "uint256"
                },
                {
                    "indexed": false,
                    "internalType": "uint256",
                    "name": "_toTokenId",
                    "type": "uint256"
                }
            ],
            "name": "BatchMetadataUpdate",
            "type": "event"
        },
        {
            "anonymous": false,
            "inputs": [
                {
                    "indexed": false,
                    "internalType": "string",
                    "name": "prevURI",
                    "type": "string"
                },
                {
                    "indexed": false,
                    "internalType": "string",
                    "name": "newURI",
                    "type": "string"
                }
            ],
            "name": "ContractURIUpdated",
            "type": "event"
        },
        {
            "anonymous": false,
            "inputs": [
                {
                    "indexed": true,
                    "internalType": "address",
                    "name": "newRoyaltyRecipient",
                    "type": "address"
                },
                {
                    "indexed": false,
                    "internalType": "uint256",
                    "name": "newRoyaltyBps",
                    "type": "uint256"
                }
            ],
            "name": "DefaultRoyalty",
            "type": "event"
        },
        {
            "anonymous": false,
            "inputs": [],
            "name": "MetadataFrozen",
            "type": "event"
        },
        {
            "anonymous": false,
            "inputs": [
                {
                    "indexed": true,
                    "internalType": "address",
                    "name": "prevOwner",
                    "type": "address"
                },
                {
                    "indexed": true,
                    "internalType": "address",
                    "name": "newOwner",
                    "type": "address"
                }
            ],
            "name": "OwnerUpdated",
            "type": "event"
        },
        {
            "anonymous": false,
            "inputs": [
                {
                    "indexed": true,
                    "internalType": "uint256",
                    "name": "tokenId",
                    "type": "uint256"
                },
                {
                    "indexed": true,
                    "internalType": "address",
                    "name": "royaltyRecipient",
                    "type": "address"
                },
                {
                    "indexed": false,
                    "internalType": "uint256",
                    "name": "royaltyBps",
                    "type": "uint256"
                }
            ],
            "name": "RoyaltyForToken",
            "type": "event"
        },
        {
            "anonymous": false,
            "inputs": [
                {
                    "indexed": true,
                    "internalType": "address",
                    "name": "from",
                    "type": "address"
                },
                {
                    "indexed": true,
                    "internalType": "address",
                    "name": "to",
                    "type": "address"
                },
                {
                    "indexed": true,
                    "internalType": "uint256",
                    "name": "tokenId",
                    "type": "uint256"
                }
            ],
            "name": "Transfer",
            "type": "event"
        },
        {
            "inputs": [
                {
                    "internalType": "address",
                    "name": "to",
                    "type": "address"
                },
                {
                    "internalType": "uint256",
                    "name": "tokenId",
                    "type": "uint256"
                }
            ],
            "name": "approve",
            "outputs": [],
            "stateMutability": "nonpayable",
            "type": "function"
        },
        {
            "inputs": [
                {
                    "internalType": "address",
                    "name": "owner",
                    "type": "address"
                }
            ],
            "name": "balanceOf",
            "outputs": [
                {
                    "internalType": "uint256",
                    "name": "",
                    "type": "uint256"
                }
            ],
            "stateMutability": "view",
            "type": "function"
        },
        {
            "inputs": [
                {
                    "internalType": "uint256",
                    "name": "",
                    "type": "uint256"
                }
            ],
            "name": "batchFrozen",
            "outputs": [
                {
                    "internalType": "bool",
                    "name": "",
                    "type": "bool"
                }
            ],
            "stateMutability": "view",
            "type": "function"
        },
        {
            "inputs": [
                {
                    "internalType": "address",
                    "name": "_to",
                    "type": "address"
                },
                {
                    "internalType": "uint256",
                    "name": "_quantity",
                    "type": "uint256"
                },
                {
                    "internalType": "string",
                    "name": "_baseURI",
                    "type": "string"
                },
                {
                    "internalType": "bytes",
                    "name": "_data",
                    "type": "bytes"
                }
            ],
            "name": "batchMintTo",
            "outputs": [],
            "stateMutability": "nonpayable",
            "type": "function"
        },
        {
            "inputs": [
                {
                    "internalType": "uint256",
                    "name": "_tokenId",
                    "type": "uint256"
                }
            ],
            "name": "burn",
            "outputs": [],
            "stateMutability": "nonpayable",
            "type": "function"
        },
        {
            "inputs": [],
            "name": "contractURI",
            "outputs": [
                {
                    "internalType": "string",
                    "name": "",
                    "type": "string"
                }
            ],
            "stateMutability": "view",
            "type": "function"
        },
        {
            "inputs": [
                {
                    "internalType": "uint256",
                    "name": "tokenId",
                    "type": "uint256"
                }
            ],
            "name": "getApproved",
            "outputs": [
                {
                    "internalType": "address",
                    "name": "",
                    "type": "address"
                }
            ],
            "stateMutability": "view",
            "type": "function"
        },
        {
            "inputs": [],
            "name": "getBaseURICount",
            "outputs": [
                {
                    "internalType": "uint256",
                    "name": "",
                    "type": "uint256"
                }
            ],
            "stateMutability": "view",
            "type": "function"
        },
        {
            "inputs": [
                {
                    "internalType": "uint256",
                    "name": "_index",
                    "type": "uint256"
                }
            ],
            "name": "getBatchIdAtIndex",
            "outputs": [
                {
                    "internalType": "uint256",
                    "name": "",
                    "type": "uint256"
                }
            ],
            "stateMutability": "view",
            "type": "function"
        },
        {
            "inputs": [
                {
                    "internalType": "string",
                    "name": "studentEmail",
                    "type": "string"
                }
            ],
            "name": "getCertificateByStudentEmail",
            "outputs": [
                {
                    "internalType": "address",
                    "name": "institution",
                    "type": "address"
                },
                {
                    "internalType": "string",
                    "name": "institutionName",
                    "type": "string"
                },
                {
                    "internalType": "string",
                    "name": "studentName",
                    "type": "string"
                },
                {
                    "internalType": "string",
                    "name": "degree",
                    "type": "string"
                },
                {
                    "internalType": "string",
                    "name": "cidHash",
                    "type": "string"
                },
                {
                    "internalType": "uint256",
                    "name": "timestamp",
                    "type": "uint256"
                }
            ],
            "stateMutability": "view",
            "type": "function"
        },
        {
            "inputs": [],
            "name": "getDefaultRoyaltyInfo",
            "outputs": [
                {
                    "internalType": "address",
                    "name": "",
                    "type": "address"
                },
                {
                    "internalType": "uint16",
                    "name": "",
                    "type": "uint16"
                }
            ],
            "stateMutability": "view",
            "type": "function"
        },
        {
            "inputs": [
                {
                    "internalType": "uint256",
                    "name": "_tokenId",
                    "type": "uint256"
                }
            ],
            "name": "getRoyaltyInfoForToken",
            "outputs": [
                {
                    "internalType": "address",
                    "name": "",
                    "type": "address"
                },
                {
                    "internalType": "uint16",
                    "name": "",
                    "type": "uint16"
                }
            ],
            "stateMutability": "view",
            "type": "function"
        },
        {
            "inputs": [
                {
                    "internalType": "address",
                    "name": "owner",
                    "type": "address"
                },
                {
                    "internalType": "address",
                    "name": "operator",
                    "type": "address"
                }
            ],
            "name": "isApprovedForAll",
            "outputs": [
                {
                    "internalType": "bool",
                    "name": "",
                    "type": "bool"
                }
            ],
            "stateMutability": "view",
            "type": "function"
        },
        {
            "inputs": [
                {
                    "internalType": "address",
                    "name": "_operator",
                    "type": "address"
                },
                {
                    "internalType": "uint256",
                    "name": "_tokenId",
                    "type": "uint256"
                }
            ],
            "name": "isApprovedOrOwner",
            "outputs": [
                {
                    "internalType": "bool",
                    "name": "isApprovedOrOwnerOf",
                    "type": "bool"
                }
            ],
            "stateMutability": "view",
            "type": "function"
        },
        {
            "inputs": [
                {
                    "internalType": "string",
                    "name": "studentName",
                    "type": "string"
                },
                {
                    "internalType": "string",
                    "name": "institutionName",
                    "type": "string"
                },
                {
                    "internalType": "string",
                    "name": "degree",
                    "type": "string"
                },
                {
                    "internalType": "string",
                    "name": "studentEmail",
                    "type": "string"
                },
                {
                    "internalType": "string",
                    "name": "cidHash",
                    "type": "string"
                }
            ],
            "name": "issueCertificate",
            "outputs": [],
            "stateMutability": "nonpayable",
            "type": "function"
        },
        {
            "inputs": [
                {
                    "internalType": "address",
                    "name": "_to",
                    "type": "address"
                },
                {
                    "internalType": "string",
                    "name": "_tokenURI",
                    "type": "string"
                }
            ],
            "name": "mintTo",
            "outputs": [],
            "stateMutability": "nonpayable",
            "type": "function"
        },
        {
            "inputs": [
                {
                    "internalType": "bytes[]",
                    "name": "data",
                    "type": "bytes[]"
                }
            ],
            "name": "multicall",
            "outputs": [
                {
                    "internalType": "bytes[]",
                    "name": "results",
                    "type": "bytes[]"
                }
            ],
            "stateMutability": "nonpayable",
            "type": "function"
        },
        {
            "inputs": [],
            "name": "name",
            "outputs": [
                {
                    "internalType": "string",
                    "name": "",
                    "type": "string"
                }
            ],
            "stateMutability": "view",
            "type": "function"
        },
        {
            "inputs": [],
            "name": "nextTokenIdToMint",
            "outputs": [
                {
                    "internalType": "uint256",
                    "name": "",
                    "type": "uint256"
                }
            ],
            "stateMutability": "view",
            "type": "function"
        },
        {
            "inputs": [],
            "name": "owner",
            "outputs": [
                {
                    "internalType": "address",
                    "name": "",
                    "type": "address"
                }
            ],
            "stateMutability": "view",
            "type": "function"
        },
        {
            "inputs": [
                {
                    "internalType": "uint256",
                    "name": "tokenId",
                    "type": "uint256"
                }
            ],
            "name": "ownerOf",
            "outputs": [
                {
                    "internalType": "address",
                    "name": "",
                    "type": "address"
                }
            ],
            "stateMutability": "view",
            "type": "function"
        },
        {
            "inputs": [
                {
                    "internalType": "uint256",
                    "name": "tokenId",
                    "type": "uint256"
                },
                {
                    "internalType": "uint256",
                    "name": "salePrice",
                    "type": "uint256"
                }
            ],
            "name": "royaltyInfo",
            "outputs": [
                {
                    "internalType": "address",
                    "name": "receiver",
                    "type": "address"
                },
                {
                    "internalType": "uint256",
                    "name": "royaltyAmount",
                    "type": "uint256"
                }
            ],
            "stateMutability": "view",
            "type": "function"
        },
        {
            "inputs": [
                {
                    "internalType": "address",
                    "name": "from",
                    "type": "address"
                },
                {
                    "internalType": "address",
                    "name": "to",
                    "type": "address"
                },
                {
                    "internalType": "uint256",
                    "name": "tokenId",
                    "type": "uint256"
                }
            ],
            "name": "safeTransferFrom",
            "outputs": [],
            "stateMutability": "nonpayable",
            "type": "function"
        },
        {
            "inputs": [
                {
                    "internalType": "address",
                    "name": "from",
                    "type": "address"
                },
                {
                    "internalType": "address",
                    "name": "to",
                    "type": "address"
                },
                {
                    "internalType": "uint256",
                    "name": "tokenId",
                    "type": "uint256"
                },
                {
                    "internalType": "bytes",
                    "name": "_data",
                    "type": "bytes"
                }
            ],
            "name": "safeTransferFrom",
            "outputs": [],
            "stateMutability": "nonpayable",
            "type": "function"
        },
        {
            "inputs": [
                {
                    "internalType": "address",
                    "name": "operator",
                    "type": "address"
                },
                {
                    "internalType": "bool",
                    "name": "approved",
                    "type": "bool"
                }
            ],
            "name": "setApprovalForAll",
            "outputs": [],
            "stateMutability": "nonpayable",
            "type": "function"
        },
        {
            "inputs": [
                {
                    "internalType": "string",
                    "name": "_uri",
                    "type": "string"
                }
            ],
            "name": "setContractURI",
            "outputs": [],
            "stateMutability": "nonpayable",
            "type": "function"
        },
        {
            "inputs": [
                {
                    "internalType": "address",
                    "name": "_royaltyRecipient",
                    "type": "address"
                },
                {
                    "internalType": "uint256",
                    "name": "_royaltyBps",
                    "type": "uint256"
                }
            ],
            "name": "setDefaultRoyaltyInfo",
            "outputs": [],
            "stateMutability": "nonpayable",
            "type": "function"
        },
        {
            "inputs": [
                {
                    "internalType": "address",
                    "name": "_newOwner",
                    "type": "address"
                }
            ],
            "name": "setOwner",
            "outputs": [],
            "stateMutability": "nonpayable",
            "type": "function"
        },
        {
            "inputs": [
                {
                    "internalType": "uint256",
                    "name": "_tokenId",
                    "type": "uint256"
                },
                {
                    "internalType": "address",
                    "name": "_recipient",
                    "type": "address"
                },
                {
                    "internalType": "uint256",
                    "name": "_bps",
                    "type": "uint256"
                }
            ],
            "name": "setRoyaltyInfoForToken",
            "outputs": [],
            "stateMutability": "nonpayable",
            "type": "function"
        },
        {
            "inputs": [
                {
                    "internalType": "bytes4",
                    "name": "interfaceId",
                    "type": "bytes4"
                }
            ],
            "name": "supportsInterface",
            "outputs": [
                {
                    "internalType": "bool",
                    "name": "",
                    "type": "bool"
                }
            ],
            "stateMutability": "view",
            "type": "function"
        },
        {
            "inputs": [],
            "name": "symbol",
            "outputs": [
                {
                    "internalType": "string",
                    "name": "",
                    "type": "string"
                }
            ],
            "stateMutability": "view",
            "type": "function"
        },
        {
            "inputs": [
                {
                    "internalType": "uint256",
                    "name": "_tokenId",
                    "type": "uint256"
                }
            ],
            "name": "tokenURI",
            "outputs": [
                {
                    "internalType": "string",
                    "name": "",
                    "type": "string"
                }
            ],
            "stateMutability": "view",
            "type": "function"
        },
        {
            "inputs": [],
            "name": "totalSupply",
            "outputs": [
                {
                    "internalType": "uint256",
                    "name": "",
                    "type": "uint256"
                }
            ],
            "stateMutability": "view",
            "type": "function"
        },
        {
            "inputs": [
                {
                    "internalType": "address",
                    "name": "from",
                    "type": "address"
                },
                {
                    "internalType": "address",
                    "name": "to",
                    "type": "address"
                },
                {
                    "internalType": "uint256",
                    "name": "tokenId",
                    "type": "uint256"
                }
            ],
            "name": "transferFrom",
            "outputs": [],
            "stateMutability": "nonpayable",
            "type": "function"
        }
    ],
    "bytecode": "60806040523480156200001157600080fd5b50604051620030cf380380620030cf833981016040819052620000349162000274565b848484848483836002620000498382620003b6565b506003620000588282620003b6565b505060008055506200006a8562000095565b6200007f826001600160801b038316620000e7565b5050600160135550620004829650505050505050565b600980546001600160a01b038381166001600160a01b0319831681179093556040519116919082907f8292fce18fa69edf4db7b94ea2e58241df0ae57f97e0a6c9b29067028bf92d7690600090a35050565b612710811115620001305760405162461bcd60e51b815260206004820152600f60248201526e45786365656473206d61782062707360881b604482015260640160405180910390fd5b600a80546001600160a01b0384166001600160b01b03199091168117600160a01b61ffff851602179091556040518281527f90d7ec04bcb8978719414f82e52e4cb651db41d0e6f8cea6118c2191e6183adb9060200160405180910390a25050565b80516001600160a01b0381168114620001aa57600080fd5b919050565b634e487b7160e01b600052604160045260246000fd5b600082601f830112620001d757600080fd5b81516001600160401b0380821115620001f457620001f4620001af565b604051601f8301601f19908116603f011681019082821181831017156200021f576200021f620001af565b816040528381526020925086838588010111156200023c57600080fd5b600091505b8382101562000260578582018301518183018401529082019062000241565b600093810190920192909252949350505050565b600080600080600060a086880312156200028d57600080fd5b620002988662000192565b60208701519095506001600160401b0380821115620002b657600080fd5b620002c489838a01620001c5565b95506040880151915080821115620002db57600080fd5b50620002ea88828901620001c5565b935050620002fb6060870162000192565b60808701519092506001600160801b03811681146200031957600080fd5b809150509295509295909350565b600181811c908216806200033c57607f821691505b6020821081036200035d57634e487b7160e01b600052602260045260246000fd5b50919050565b601f821115620003b157600081815260208120601f850160051c810160208610156200038c5750805b601f850160051c820191505b81811015620003ad5782815560010162000398565b5050505b505050565b81516001600160401b03811115620003d257620003d2620001af565b620003ea81620003e3845462000327565b8462000363565b602080601f831160018114620004225760008415620004095750858301515b600019600386901b1c1916600185901b178555620003ad565b600085815260208120601f198616915b82811015620004535788860151825594840194600190910190840162000432565b5085821015620004725787850151600019600388901b60f8161c191681555b5050505050600190811b01905550565b612c3d80620004926000396000f3fe608060405234801561001057600080fd5b50600436106102055760003560e01c8063600dd5ea1161011a57806395d89b41116100ad578063b24f2d391161007c578063b24f2d39146104b2578063b88d4fde146104d0578063c87b56dd146104e3578063e8a3d485146104f6578063e985e9c5146104fe57600080fd5b806395d89b41146104645780639bcf7a151461046c578063a22cb4651461047f578063ac9650d81461049257600080fd5b8063754a81d9116100e9578063754a81d91461040a578063830405321461041d5780638da5cb5b14610440578063938e3d7b1461045157600080fd5b8063600dd5ea146103c95780636352211e146103dc57806363b45e2d146103ef57806370a08231146103f757600080fd5b80632419f51b1161019d5780633b1475a71161016c5780633b1475a71461035357806342842e0e1461035b57806342966c681461036e578063430c2081146103815780634cc157df1461039457600080fd5b80632419f51b146102d65780632a55205a146102e9578063353181581461031b5780633626c8fc1461032e57600080fd5b8063095ea7b3116101d9578063095ea7b31461028757806313af40351461029a57806318160ddd146102ad57806323b872dd146102c357600080fd5b806275a3171461020a57806301ffc9a71461021f57806306fdde0314610247578063081812fc1461025c575b600080fd5b61021d610218366004612323565b61053a565b005b61023261022d366004612386565b6105be565b60405190151581526020015b60405180910390f35b61024f61062b565b60405161023e91906123f3565b61026f61026a366004612406565b6106bd565b6040516001600160a01b03909116815260200161023e565b61021d61029536600461241f565b610701565b61021d6102a8366004612449565b610787565b600154600054035b60405190815260200161023e565b61021d6102d1366004612464565b6107b7565b6102b56102e4366004612406565b6107c2565b6102fc6102f73660046124a0565b610830565b604080516001600160a01b03909316835260208301919091520161023e565b61021d6103293660046124c2565b61086d565b61034161033c366004612593565b6109ca565b60405161023e969594939291906125c7565b6000546102b5565b61021d610369366004612464565b610d4a565b61021d61037c366004612406565b610d65565b61023261038f36600461241f565b610d70565b6103a76103a2366004612406565b610def565b604080516001600160a01b03909316835261ffff90911660208301520161023e565b61021d6103d736600461241f565b610e5a565b61026f6103ea366004612406565b610e88565b600c546102b5565b6102b5610405366004612449565b610e9a565b61021d610418366004612639565b610ee8565b61023261042b366004612406565b600e6020526000908152604090205460ff1681565b6009546001600160a01b031661026f565b61021d61045f366004612593565b610f5c565b61024f610f89565b61021d61047a3660046126b6565b610f98565b61021d61048d3660046126db565b610fc7565b6104a56104a0366004612717565b61105c565b60405161023e919061278b565b600a546001600160a01b03811690600160a01b900461ffff166103a7565b61021d6104de3660046127ed565b611150565b61024f6104f1366004612406565b611194565b61024f611282565b61023261050c366004612848565b6001600160a01b03918216600090815260076020908152604080832093909416825291909152205460ff1690565b610542611310565b61058d5760405162461bcd60e51b81526020600482015260176024820152762737ba1030baba3437b934bd32b2103a379036b4b73a1760491b60448201526064015b60405180910390fd5b61059f61059960005490565b8261133d565b6105ba826001604051806020016040528060008152506113af565b5050565b60006301ffc9a760e01b6001600160e01b0319831614806105ef57506380ac58cd60e01b6001600160e01b03198316145b8061060a5750635b5e139f60e01b6001600160e01b03198316145b8061062557506001600160e01b0319821663152a902d60e11b145b92915050565b60606002805461063a9061287b565b80601f01602080910402602001604051908101604052809291908181526020018280546106669061287b565b80156106b35780601f10610688576101008083540402835291602001916106b3565b820191906000526020600020905b81548152906001019060200180831161069657829003601f168201915b5050505050905090565b60006106c882611552565b6106e5576040516333d1c03960e21b815260040160405180910390fd5b506000908152600660205260409020546001600160a01b031690565b600061070c82610e88565b9050806001600160a01b0316836001600160a01b0316036107405760405163250fdee360e21b815260040160405180910390fd5b336001600160a01b038216146107775761075a813361050c565b610777576040516367d9dca160e11b815260040160405180910390fd5b61078283838361157d565b505050565b61078f611310565b6107ab5760405162461bcd60e51b8152600401610584906128b5565b6107b4816115d9565b50565b61078283838361162b565b60006107cd600c5490565b821061080b5760405162461bcd60e51b815260206004820152600d60248201526c092dcecc2d8d2c840d2dcc8caf609b1b6044820152606401610584565b600c828154811061081e5761081e6128dd565b90600052602060002001549050919050565b60008060008061083f86610def565b90945084925061ffff1690506127106108588287612909565b6108629190612936565b925050509250929050565b61087933601354611806565b601354604080516101008101825233815260208082018881528284018a9052606083018790526080830188905260a08301869052600160c084018190524260e08501526000868152601090935293909120825181546001600160a01b0319166001600160a01b03909116178155905191929091908201906108fa9082612998565b506040820151600282019061090f9082612998565b50606082015160038201906109249082612998565b50608082015160048201906109399082612998565b5060a0820151600582019061094e9082612998565b5060c082015160068201805460ff191691151591909117905560e090910151600790910155600081815260116020526040902061098b8482612998565b508060128460405161099d9190612a57565b90815260405190819003602001902055601380549060006109bd83612a73565b9190505550505050505050565b60006060806060806000806012886040516109e59190612a57565b90815260408051918290036020908101832054600081815260108352838120610100860190945283546001600160a01b0316855260018401805492965090949392840191610a329061287b565b80601f0160208091040260200160405190810160405280929190818152602001828054610a5e9061287b565b8015610aab5780601f10610a8057610100808354040283529160200191610aab565b820191906000526020600020905b815481529060010190602001808311610a8e57829003601f168201915b50505050508152602001600282018054610ac49061287b565b80601f0160208091040260200160405190810160405280929190818152602001828054610af09061287b565b8015610b3d5780601f10610b1257610100808354040283529160200191610b3d565b820191906000526020600020905b815481529060010190602001808311610b2057829003601f168201915b50505050508152602001600382018054610b569061287b565b80601f0160208091040260200160405190810160405280929190818152602001828054610b829061287b565b8015610bcf5780601f10610ba457610100808354040283529160200191610bcf565b820191906000526020600020905b815481529060010190602001808311610bb257829003601f168201915b50505050508152602001600482018054610be89061287b565b80601f0160208091040260200160405190810160405280929190818152602001828054610c149061287b565b8015610c615780601f10610c3657610100808354040283529160200191610c61565b820191906000526020600020905b815481529060010190602001808311610c4457829003601f168201915b50505050508152602001600582018054610c7a9061287b565b80601f0160208091040260200160405190810160405280929190818152602001828054610ca69061287b565b8015610cf35780601f10610cc857610100808354040283529160200191610cf3565b820191906000526020600020905b815481529060010190602001808311610cd657829003601f168201915b5050509183525050600682015460ff16151560208083019190915260079092015460409182015282519183015190830151608084015160a085015160e090950151939e929d50909b50995091975095509350505050565b61078283838360405180602001604052806000815250611150565b6107b4816001611820565b600080610d7c83610e88565b9050806001600160a01b0316846001600160a01b03161480610dc357506001600160a01b0380821660009081526007602090815260408083209388168352929052205460ff165b80610de75750836001600160a01b0316610ddc846106bd565b6001600160a01b0316145b949350505050565b6000818152600b60209081526040808320815180830190925280546001600160a01b031680835260019091015492820192909252829115610e365780516020820151610e50565b600a546001600160a01b03811690600160a01b900461ffff165b9250925050915091565b610e62611310565b610e7e5760405162461bcd60e51b8152600401610584906128b5565b6105ba82826119d3565b6000610e9382611a79565b5192915050565b60006001600160a01b038216610ec3576040516323d3ad8160e21b815260040160405180910390fd5b506001600160a01b03166000908152600560205260409020546001600160401b031690565b610ef0611310565b610f365760405162461bcd60e51b81526020600482015260176024820152762737ba1030baba3437b934bd32b2103a379036b4b73a1760491b6044820152606401610584565b610f49610f4260005490565b8484611b93565b5050610f568484836113af565b50505050565b610f64611310565b610f805760405162461bcd60e51b8152600401610584906128b5565b6107b481611bf7565b60606003805461063a9061287b565b610fa0611310565b610fbc5760405162461bcd60e51b8152600401610584906128b5565b610782838383611cd3565b336001600160a01b03831603610ff05760405163b06307db60e01b815260040160405180910390fd5b3360008181526007602090815260408083206001600160a01b03871680855290835292819020805460ff191686151590811790915590519081529192917f17307eab39ab6107e8899845ad3d59bd9653f200f220920489ca2b5937696c31910160405180910390a35050565b6060816001600160401b0381111561107657611076612281565b6040519080825280602002602001820160405280156110a957816020015b60608152602001906001900390816110945790505b50905060005b8281101561114957611119308585848181106110cd576110cd6128dd565b90506020028101906110df9190612a8c565b8080601f016020809104026020016040519081016040528093929190818152602001838380828437600092019190915250611d9c92505050565b82828151811061112b5761112b6128dd565b6020026020010181905250808061114190612a73565b9150506110af565b5092915050565b61115b84848461162b565b6001600160a01b0383163b15610f565761117784848484611dc8565b610f56576040516368d2bf6b60e11b815260040160405180910390fd5b6000818152600f60205260408120805460609291906111b29061287b565b80601f01602080910402602001604051908101604052809291908181526020018280546111de9061287b565b801561122b5780601f106112005761010080835404028352916020019161122b565b820191906000526020600020905b81548152906001019060200180831161120e57829003601f168201915b505050505090506000815111156112425792915050565b600061124d84611eb3565b9050806112598561204f565b60405160200161126a929190612ad9565b60405160208183030381529060405292505050919050565b6008805461128f9061287b565b80601f01602080910402602001604051908101604052809291908181526020018280546112bb9061287b565b80156113085780601f106112dd57610100808354040283529160200191611308565b820191906000526020600020905b8154815290600101906020018083116112eb57829003601f168201915b505050505081565b60006113246009546001600160a01b031690565b6001600160a01b0316336001600160a01b031614905090565b6000828152600f6020526040902080546113569061287b565b1590506113975760405162461bcd60e51b815260206004820152600f60248201526e15549248185b1c9958591e481cd95d608a1b6044820152606401610584565b6000828152600f602052604090206107828282612998565b6000546001600160a01b0384166113d857604051622e076360e81b815260040160405180910390fd5b826000036113f95760405163b562e8dd60e01b815260040160405180910390fd5b6001600160a01b038416600081815260056020908152604080832080546fffffffffffffffffffffffffffffffff1981166001600160401b038083168b0181169182176801000000000000000067ffffffffffffffff1990941690921783900481168b01811690920217909155858452600490925290912080546001600160e01b0319168317600160a01b42909316929092029190911790558190818501903b1561150f575b60405182906001600160a01b03881690600090600080516020612be8833981519152908290a46114d86000878480600101955087611dc8565b6114f5576040516368d2bf6b60e11b815260040160405180910390fd5b80821061149f57826000541461150a57600080fd5b611542565b5b6040516001830192906001600160a01b03881690600090600080516020612be8833981519152908290a4808210611510575b506000908155610f569085838684565b6000805482108015610625575050600090815260046020526040902054600160e01b900460ff161590565b60008281526006602052604080822080546001600160a01b0319166001600160a01b0387811691821790925591518593918516917f8c5be1e5ebec7d5bd14f71427d1e84f3dd0314c0f7b2291e5b200ac8c7c3b92591a4505050565b600980546001600160a01b038381166001600160a01b0319831681179093556040519116919082907f8292fce18fa69edf4db7b94ea2e58241df0ae57f97e0a6c9b29067028bf92d7690600090a35050565b600061163682611a79565b9050836001600160a01b031681600001516001600160a01b03161461166d5760405162a1148160e81b815260040160405180910390fd5b6000336001600160a01b038616148061168b575061168b853361050c565b806116a657503361169b846106bd565b6001600160a01b0316145b9050806116c657604051632ce44b5f60e11b815260040160405180910390fd5b6001600160a01b0384166116ed57604051633a954ecd60e21b815260040160405180910390fd5b6116f96000848761157d565b6001600160a01b038581166000908152600560209081526040808320805467ffffffffffffffff198082166001600160401b0392831660001901831617909255898616808652838620805493841693831660019081018416949094179055898652600490945282852080546001600160e01b031916909417600160a01b429092169190910217835587018084529220805491939091166117cd5760005482146117cd57805460208601516001600160401b0316600160a01b026001600160e01b03199091166001600160a01b038a16171781555b50505082846001600160a01b0316866001600160a01b0316600080516020612be883398151915260405160405180910390a45050505050565b6105ba8282604051806020016040528060008152506113af565b600061182b83611a79565b80519091508215611891576000336001600160a01b03831614806118545750611854823361050c565b8061186f575033611864866106bd565b6001600160a01b0316145b90508061188f57604051632ce44b5f60e11b815260040160405180910390fd5b505b61189d6000858361157d565b6001600160a01b0380821660008181526005602090815260408083208054600160801b6000196001600160401b0380841691909101811667ffffffffffffffff198416811783900482166001908101831690930277ffffffffffffffff0000000000000000ffffffffffffffff19909416179290921783558b86526004909452828520805460ff60e01b1942909316600160a01b026001600160e01b03199091169097179690961716600160e01b17855591890180845292208054919490911661199b57600054821461199b57805460208701516001600160401b0316600160a01b026001600160e01b03199091166001600160a01b038716171781555b5050604051869250600091506001600160a01b03841690600080516020612be8833981519152908390a4505060018054810190555050565b612710811115611a175760405162461bcd60e51b815260206004820152600f60248201526e45786365656473206d61782062707360881b6044820152606401610584565b600a80546001600160a01b0384166001600160b01b03199091168117600160a01b61ffff851602179091556040518281527f90d7ec04bcb8978719414f82e52e4cb651db41d0e6f8cea6118c2191e6183adb9060200160405180910390a25050565b604080516060810182526000808252602082018190529181019190915281600054811015611b7a57600081815260046020908152604091829020825160608101845290546001600160a01b0381168252600160a01b81046001600160401b031692820192909252600160e01b90910460ff16151591810182905290611b785780516001600160a01b031615611b0f579392505050565b5060001901600081815260046020908152604091829020825160608101845290546001600160a01b038116808352600160a01b82046001600160401b031693830193909352600160e01b900460ff1615159281019290925215611b73579392505050565b611b0f565b505b604051636f96cda160e11b815260040160405180910390fd5b600080611ba08486612b08565b600c8054600181019091557fdf6966c971051c3d54ec59162606531493a51404a002842f56009d7e5cf4a8c7018190556000818152600d60205260409020909250829150611bee8482612998565b50935093915050565b600060088054611c069061287b565b80601f0160208091040260200160405190810160405280929190818152602001828054611c329061287b565b8015611c7f5780601f10611c5457610100808354040283529160200191611c7f565b820191906000526020600020905b815481529060010190602001808311611c6257829003601f168201915b505050505090508160089081611c959190612998565b507fc9c7c3fe08b88b4df9d4d47ef47d2c43d55c025a0ba88ca442580ed9e7348a168183604051611cc7929190612b1b565b60405180910390a15050565b612710811115611d175760405162461bcd60e51b815260206004820152600f60248201526e45786365656473206d61782062707360881b6044820152606401610584565b6040805180820182526001600160a01b0384811680835260208084018681526000898152600b8352869020945185546001600160a01b031916941693909317845591516001909301929092559151838152909185917f7365cf4122f072a3365c20d54eff9b38d73c096c28e1892ec8f5b0e403a0f12d910160405180910390a3505050565b6060611dc18383604051806060016040528060278152602001612bc16027913961214f565b9392505050565b604051630a85bd0160e11b81526000906001600160a01b0385169063150b7a0290611dfd903390899088908890600401612b49565b6020604051808303816000875af1925050508015611e38575060408051601f3d908101601f19168201909252611e3591810190612b7c565b60015b611e96573d808015611e66576040519150601f19603f3d011682016040523d82523d6000602084013e611e6b565b606091505b508051600003611e8e576040516368d2bf6b60e11b815260040160405180910390fd5b805181602001fd5b6001600160e01b031916630a85bd0160e11b149050949350505050565b60606000611ec0600c5490565b90506000600c805480602002602001604051908101604052809291908181526020018280548015611f1057602002820191906000526020600020905b815481526020019060010190808311611efc575b5050505050905060005b8281101561201457818181518110611f3457611f346128dd565b602002602001015185101561200257600d6000838381518110611f5957611f596128dd565b602002602001015181526020019081526020016000208054611f7a9061287b565b80601f0160208091040260200160405190810160405280929190818152602001828054611fa69061287b565b8015611ff35780601f10611fc857610100808354040283529160200191611ff3565b820191906000526020600020905b815481529060010190602001808311611fd657829003601f168201915b50505050509350505050919050565b61200d600182612b08565b9050611f1a565b5060405162461bcd60e51b815260206004820152600f60248201526e125b9d985b1a59081d1bdad95b9259608a1b6044820152606401610584565b6060816000036120765750506040805180820190915260018152600360fc1b602082015290565b8160005b81156120a0578061208a81612a73565b91506120999050600a83612936565b915061207a565b6000816001600160401b038111156120ba576120ba612281565b6040519080825280601f01601f1916602001820160405280156120e4576020820181803683370190505b5090505b8415610de7576120f9600183612b99565b9150612106600a86612bac565b612111906030612b08565b60f81b818381518110612126576121266128dd565b60200101906001600160f81b031916908160001a905350612148600a86612936565b94506120e8565b60606001600160a01b0384163b6121b75760405162461bcd60e51b815260206004820152602660248201527f416464726573733a2064656c65676174652063616c6c20746f206e6f6e2d636f6044820152651b9d1c9858dd60d21b6064820152608401610584565b600080856001600160a01b0316856040516121d29190612a57565b600060405180830381855af49150503d806000811461220d576040519150601f19603f3d011682016040523d82523d6000602084013e612212565b606091505b509150915061222282828661222c565b9695505050505050565b6060831561223b575081611dc1565b82511561224b5782518084602001fd5b8160405162461bcd60e51b815260040161058491906123f3565b80356001600160a01b038116811461227c57600080fd5b919050565b634e487b7160e01b600052604160045260246000fd5b600082601f8301126122a857600080fd5b81356001600160401b03808211156122c2576122c2612281565b604051601f8301601f19908116603f011681019082821181831017156122ea576122ea612281565b8160405283815286602085880101111561230357600080fd5b836020870160208301376000602085830101528094505050505092915050565b6000806040838503121561233657600080fd5b61233f83612265565b915060208301356001600160401b0381111561235a57600080fd5b61236685828601612297565b9150509250929050565b6001600160e01b0319811681146107b457600080fd5b60006020828403121561239857600080fd5b8135611dc181612370565b60005b838110156123be5781810151838201526020016123a6565b50506000910152565b600081518084526123df8160208601602086016123a3565b601f01601f19169290920160200192915050565b602081526000611dc160208301846123c7565b60006020828403121561241857600080fd5b5035919050565b6000806040838503121561243257600080fd5b61243b83612265565b946020939093013593505050565b60006020828403121561245b57600080fd5b611dc182612265565b60008060006060848603121561247957600080fd5b61248284612265565b925061249060208501612265565b9150604084013590509250925092565b600080604083850312156124b357600080fd5b50508035926020909101359150565b600080600080600060a086880312156124da57600080fd5b85356001600160401b03808211156124f157600080fd5b6124fd89838a01612297565b9650602088013591508082111561251357600080fd5b61251f89838a01612297565b9550604088013591508082111561253557600080fd5b61254189838a01612297565b9450606088013591508082111561255757600080fd5b61256389838a01612297565b9350608088013591508082111561257957600080fd5b5061258688828901612297565b9150509295509295909350565b6000602082840312156125a557600080fd5b81356001600160401b038111156125bb57600080fd5b610de784828501612297565b6001600160a01b038716815260c0602082018190526000906125eb908301886123c7565b82810360408401526125fd81886123c7565b9050828103606084015261261181876123c7565b9050828103608084015261262581866123c7565b9150508260a0830152979650505050505050565b6000806000806080858703121561264f57600080fd5b61265885612265565b93506020850135925060408501356001600160401b038082111561267b57600080fd5b61268788838901612297565b9350606087013591508082111561269d57600080fd5b506126aa87828801612297565b91505092959194509250565b6000806000606084860312156126cb57600080fd5b8335925061249060208501612265565b600080604083850312156126ee57600080fd5b6126f783612265565b91506020830135801515811461270c57600080fd5b809150509250929050565b6000806020838503121561272a57600080fd5b82356001600160401b038082111561274157600080fd5b818501915085601f83011261275557600080fd5b81358181111561276457600080fd5b8660208260051b850101111561277957600080fd5b60209290920196919550909350505050565b6000602080830181845280855180835260408601915060408160051b870101925083870160005b828110156127e057603f198886030184526127ce8583516123c7565b945092850192908501906001016127b2565b5092979650505050505050565b6000806000806080858703121561280357600080fd5b61280c85612265565b935061281a60208601612265565b92506040850135915060608501356001600160401b0381111561283c57600080fd5b6126aa87828801612297565b6000806040838503121561285b57600080fd5b61286483612265565b915061287260208401612265565b90509250929050565b600181811c9082168061288f57607f821691505b6020821081036128af57634e487b7160e01b600052602260045260246000fd5b50919050565b6020808252600e908201526d139bdd08185d5d1a1bdc9a5e995960921b604082015260600190565b634e487b7160e01b600052603260045260246000fd5b634e487b7160e01b600052601160045260246000fd5b8082028115828204841417610625576106256128f3565b634e487b7160e01b600052601260045260246000fd5b60008261294557612945612920565b500490565b601f82111561078257600081815260208120601f850160051c810160208610156129715750805b601f850160051c820191505b818110156129905782815560010161297d565b505050505050565b81516001600160401b038111156129b1576129b1612281565b6129c5816129bf845461287b565b8461294a565b602080601f8311600181146129fa57600084156129e25750858301515b600019600386901b1c1916600185901b178555612990565b600085815260208120601f198616915b82811015612a2957888601518255948401946001909101908401612a0a565b5085821015612a475787850151600019600388901b60f8161c191681555b5050505050600190811b01905550565b60008251612a698184602087016123a3565b9190910192915050565b600060018201612a8557612a856128f3565b5060010190565b6000808335601e19843603018112612aa357600080fd5b8301803591506001600160401b03821115612abd57600080fd5b602001915036819003821315612ad257600080fd5b9250929050565b60008351612aeb8184602088016123a3565b835190830190612aff8183602088016123a3565b01949350505050565b80820180821115610625576106256128f3565b604081526000612b2e60408301856123c7565b8281036020840152612b4081856123c7565b95945050505050565b6001600160a01b0385811682528416602082015260408101839052608060608201819052600090612222908301846123c7565b600060208284031215612b8e57600080fd5b8151611dc181612370565b81810381811115610625576106256128f3565b600082612bbb57612bbb612920565b50069056fe416464726573733a206c6f772d6c6576656c2064656c65676174652063616c6c206661696c6564ddf252ad1be2c89b69c2b068fc378daa952ba7f163c4a11628f55a4df523b3efa2646970667358221220ffc05d3571c34620156e0e3ddc99670ac331ab1dc9db9148f23d7356374662ba64736f6c63430008130033",
    "sourcePath": "/home/rwietter/github/dev/certfs-web3/apps/web/certfs-contracts/contracts/cert.sol",
    "compiler": {
        "name": "solc",
        "version": "0.8.19+commit.7dd6d404"
    },
    "functionHashes": {
        "approve(address,uint256)": "095ea7b3",
        "balanceOf(address)": "70a08231",
        "batchFrozen(uint256)": "83040532",
        "batchMintTo(address,uint256,string,bytes)": "754a81d9",
        "burn(uint256)": "42966c68",
        "contractURI()": "e8a3d485",
        "getApproved(uint256)": "081812fc",
        "getBaseURICount()": "63b45e2d",
        "getBatchIdAtIndex(uint256)": "2419f51b",
        "getCertificateByStudentEmail(string)": "3626c8fc",
        "getDefaultRoyaltyInfo()": "b24f2d39",
        "getRoyaltyInfoForToken(uint256)": "4cc157df",
        "isApprovedForAll(address,address)": "e985e9c5",
        "isApprovedOrOwner(address,uint256)": "430c2081",
        "issueCertificate(string,string,string,string,string)": "35318158",
        "mintTo(address,string)": "0075a317",
        "multicall(bytes[])": "ac9650d8",
        "name()": "06fdde03",
        "nextTokenIdToMint()": "3b1475a7",
        "owner()": "8da5cb5b",
        "ownerOf(uint256)": "6352211e",
        "royaltyInfo(uint256,uint256)": "2a55205a",
        "safeTransferFrom(address,address,uint256)": "42842e0e",
        "safeTransferFrom(address,address,uint256,bytes)": "b88d4fde",
        "setApprovalForAll(address,bool)": "a22cb465",
        "setContractURI(string)": "938e3d7b",
        "setDefaultRoyaltyInfo(address,uint256)": "600dd5ea",
        "setOwner(address)": "13af4035",
        "setRoyaltyInfoForToken(uint256,address,uint256)": "9bcf7a15",
        "supportsInterface(bytes4)": "01ffc9a7",
        "symbol()": "95d89b41",
        "tokenURI(uint256)": "c87b56dd",
        "totalSupply()": "18160ddd",
        "transferFrom(address,address,uint256)": "23b872dd"
    },
    "gasEstimates": {
        "creation": {
            "codeDepositCost": "2265000",
            "executionCost": "infinite",
            "totalCost": "infinite"
        },
        "external": {
            "approve(address,uint256)": "infinite",
            "balanceOf(address)": "2719",
            "batchFrozen(uint256)": "2506",
            "batchMintTo(address,uint256,string,bytes)": "infinite",
            "burn(uint256)": "infinite",
            "contractURI()": "infinite",
            "getApproved(uint256)": "6981",
            "getBaseURICount()": "2382",
            "getBatchIdAtIndex(uint256)": "6761",
            "getCertificateByStudentEmail(string)": "infinite",
            "getDefaultRoyaltyInfo()": "2431",
            "getRoyaltyInfoForToken(uint256)": "7024",
            "isApprovedForAll(address,address)": "infinite",
            "isApprovedOrOwner(address,uint256)": "infinite",
            "issueCertificate(string,string,string,string,string)": "infinite",
            "mintTo(address,string)": "infinite",
            "multicall(bytes[])": "infinite",
            "name()": "infinite",
            "nextTokenIdToMint()": "2337",
            "owner()": "2420",
            "ownerOf(uint256)": "infinite",
            "royaltyInfo(uint256,uint256)": "7221",
            "safeTransferFrom(address,address,uint256)": "infinite",
            "safeTransferFrom(address,address,uint256,bytes)": "infinite",
            "setApprovalForAll(address,bool)": "26714",
            "setContractURI(string)": "infinite",
            "setDefaultRoyaltyInfo(address,uint256)": "28383",
            "setOwner(address)": "28431",
            "setRoyaltyInfoForToken(uint256,address,uint256)": "51059",
            "supportsInterface(bytes4)": "634",
            "symbol()": "infinite",
            "tokenURI(uint256)": "infinite",
            "totalSupply()": "4477",
            "transferFrom(address,address,uint256)": "infinite"
        }
    }
}